:100000000C9440090C945D090C945D090C945D09F5
:100010000C945D090C94C2090C945D090C945D0963
:100020000C945D090C945D090C945D090C940A0A0A
:100030000C945D090C945D090C94FA160C944C1701
:100040000C945D090C9407130C9487110C94A8115F
:100050000C945D090C945D090C945D090C945D0988
:100060000C94E8110C945D090000000000000009E8
:10007000744C6000000946D28000000F7552E00009
:100080000009445E80000009745260000000000016
:1000900000000000000000000000000000000064FC
:1000A000BA4C35000094A25255000085A3D25300EB
:1000B0000096A25E51000064A2529600000000006B
:1000C0000000000000000000008040C020A060E0B0
:1000D000109050D030B070F0088848C828A868E860
:1000E000189858D838B878F8048444C424A464E430
:1000F000149454D434B474F40C8C4CCC2CAC6CEC00
:100100001C9C5CDC3CBC7CFC028242C222A262E2FF
:10011000129252D232B272F20A8A4ACA2AAA6AEAFF
:100120001A9A5ADA3ABA7AFA068646C626A666E6CF
:10013000169656D636B676F60E8E4ECE2EAE6EEE9F
:100140001E9E5EDE3EBE7EFE018141C121A161E1B7
:10015000119151D131B171F1098949C929A969E9CF
:10016000199959D939B979F9058545C525A565E59F
:10017000159555D535B575F50D8D4DCD2DAD6DED6F
:100180001D9D5DDD3DBD7DFD038343C323A363E36F
:10019000139353D333B373F30B8B4BCB2BAB6BEB6F
:1001A0001B9B5BDB3BBB7BFB078747C727A767E73F
:1001B000179757D737B777F70F8F4FCF2FAF6FEF0F
:1001C0001F9F5FDF3FBF7FFF708898A8C88870209F
:1001D00060A0202020F8708808304080F8708808DF
:1001E00030088870305090F8101010F88080F008B7
:1001F00008F0708880F0888870F888081020202027
:1002000070888870888870708888780888707FC047
:10021000FFE0FFE0E0E0E1E0E3E0E7E0EEE0FCE06B
:10022000F8E0F0E0E0E0FFE0FFE07FC0FE00FE006D
:10023000FE000E000E000E000E000E000E000E005E
:100240000E000E00FFE0FFE0FFE07FC0FFE0FFE0F8
:10025000E0E000E000E07FE0FFE0FFC0E000E00061
:10026000E000FFE0FFE0FFE07FC0FFE0FFE0E0E054
:1002700000E000E01FE01FC01FE000E000E0E0E061
:10028000FFE0FFE07FC0E0E0E0E0E0E0E0E0E0E0B1
:10029000E0E0FFE0FFE0FFE000E000E000E000E081
:1002A00000E000E0FFE0FFE0FFE0E000E000E00051
:1002B000FFC0FFE0FFE000E000E0E0E0FFE0FFE083
:1002C0007FC07FC0FFE0FFE0E0E0E000E000FFC0B3
:1002D000FFE0FFE0E0E0E0E0E0E0FFE0FFE07FC023
:1002E000FFE0FFE0FFE000E000E000E000E000E011
:1002F00000E000E000E000E000E000E000E07FC09F
:10030000FFE0FFE0E0E0E0E0E0E0FFE07FC0FFE0F2
:10031000E0E0E0E0E0E0FFE0FFE07FC07FC0FFE082
:10032000FFE0E0E0E0E0E0E0FFE0FFE07FE000E0B1
:1003300000E0E0E0FFE0FFE07FC00303030303030E
:10034000030303030303030303030303030303037D
:100350000303030303030303030303020408060860
:100360000602040408060205020505030505060544
:10037000050505050202040504050808060606052C
:10038000050706040606050807070508060506060C
:1003900008080608060405040606020806060605FF
:1003A00005070604060605080707050806050606EC
:1003B00008080608060402040303030303030303F7
:1003C00003030303030303030303030303030303FD
:1003D00003030303030303030303030204080608E0
:1003E00006040404080602050205050305010605C6
:1003F00005050505030204050403080805060605AE
:100400000507060406060505070505050605060693
:10041000080506080604050406060403030304038E
:100420000507040403030503030303030303050390
:100430000403050606040204050300000000000092
:1004400000000000000000000000000000000000AC
:10045000000000000000000000000000000000009C
:10046000000000000000000000000000000000008C
:10047000000000000000000000000000000000007C
:10048000000000000000000000000000000000006C
:10049000000000000000000000000000000000005C
:1004A000000000000000000000000000000000004C
:1004B000000000000000000000000000000000003C
:1004C000000000000000000000000000000000002C
:1004D000000000000000000000000000000000011B
:1004E00001010101050500000000287E143F000005
:1004F0000000004225152A540205050215C040805F
:10050000000004020101010102040404082A1C7F06
:100510001C0004041F0400000000000000000F0085
:1005200000000000000808040602609090909040CF
:10053000C040404060901020406090106010040463
:100540000A091F0F0107080806010709090F080417
:1005500004020609090609060909090E000001003E
:10056000010000000100000402010200000F000F62
:10057000000102040207080402023C4259553908EE
:100580000814143E0F11110F110C1201010107097B
:100590001111110F010107010F010107010C1201D7
:1005A00039211111111F110702020202101010103F
:1005B000101109050305010101010141636355554E
:1005C0002123252D290C1221212107090907010CBE
:1005D000122121210F11110F0906090106081F041C
:1005E0000404041111111111412222141449494922
:1005F0005555111B0A040A41221408081F1008044B
:1006000002070101010101010206040704040404B8
:10061000040A1100000000000000010100000008B1
:100620000814143E0F11110F110C120101010709DA
:100630001111110F010107010F010107010C120136
:1006400039211111111F110702020202101010109E
:1006500010110905030501010101014163635555AD
:100660002123252D290C1221212107090907010C1D
:10067000122121210F11110F0906090106081F047B
:100680000404041111111111412222141449494981
:100690005555111B0A040A41221408081F100804AA
:1006A000020402010101010101010101020404042B
:1006B000000000000000000000000000000000003A
:1006C000000000000000000000000000000000002A
:1006D000000000000000000000000000000000001A
:1006E000000000000000000000000000000000000A
:1006F00000000000000000000000000000000000FA
:1007000000000000000000000000000000000000E9
:1007100000000000000000000000000000000000D9
:1007200000000000000000000000000000000000C9
:1007300000000000000000000000000000000000B9
:1007400000000000000000000000000000000000A9
:100750000000000000000000000000000000000198
:1007600001010101050500000000287E143F000082
:100770000000004225152A54020505021505050052
:10078000000004020101010102040404082A1C7F84
:100790001C0004041F0400000000000000000F0003
:1007A000000000000008080406020000000000002D
:1007B0000000000000000000008000808080040431
:1007C0000A091F0F0107080806010709090F080495
:1007D00004020609090609060909090E6080C0809D
:1007E000600000000100000402010200000F000F81
:1007F0000001020402A0004040403C425955390823
:100800000814143EF08888F0880C120101010709D1
:100810001111110F010107010F010107010C120154
:1008200039211111111F11070202020210101010BC
:100830001011090503050101010101888888F88864
:100840002123252D29F88888888807090907017040
:10085000888080800F11110F0906090106081F0406
:1008600004040411111111114122221414888888E2
:100870007808111B0A040A41221408081F100804F2
:100880000207010101010101020604070404040436
:10089000040A1100000000000000609090F090E059
:1008A00080C0A0C0C0A0C0A0C0E0808080803050C8
:1008B00050F090E080E080E0A8A870A8A8C020C018
:1008C00020C09090B0D090600090B0D0A0A0C0A008
:1008D000A060A0A0A0A088D8A88888A0A0E0A0A020
:1008E00040A0A0A040E0A0A0A0A0C0A0C0808040E8
:1008F000A080A040E040404040A0A06020C070A880
:10090000A87020A0A040A0A0A0A0A0F010A0A0606F
:100910002020A8A8A8A8F8A8A8A8FC041F100804CC
:100920000204020101018080C0A0C001020404048D
:1009300090A8E8A89060A060A0A0030303030303AD
:100940000303030303030303030303030303030377
:10095000030303030303030303030302040806085A
:10096000060204040806020502050503050506053E
:100970000505050502020405040508080606060526
:100980000507060406060508070705080605060606
:1009900008080608060405040606020806060605F9
:1009A00005070604060605080707050806050606E6
:1009B00008080608060402040303030303030303F1
:1009C00003030303030303030303030303030303F7
:1009D00003030303030303030303030204080608DA
:1009E00006040404080602050205050305010605C0
:1009F00005050505020204050405080805060605A7
:100A0000050706040606050507050505060506068D
:100A1000080506080604050406060505040605057E
:100A20000507050504050505050504080505060572
:100A30000508060806040204030500000000000083
:100A400000000000000000000000000000000000A6
:100A50000000000000000000000000000000000096
:100A60000000000000000000000000000000000086
:100A70000000000000000000000000000000000076
:100A80000000000000000000000000000000000066
:100A90000000000000000000000000000000000056
:100AA0000000000000000000000000000000000046
:100AB0000000000000000000000000000000000036
:100AC0000000000000000000000000000000000026
:100AD0000000000000000000000000000000000016
:100AE0000000000000000000000000000000000006
:100AF00000000000000000000000000000000000F6
:100B000000000000000000000000000000000000E5
:100B100000000000000000000000000000000000D5
:100B200000010101010100010505000000000000B5
:100B3000287E143F0A000000000000000042251536
:100B40002A54522102050502150916C040800000F2
:100B50000000040201010102040102040404020174
:100B6000082A1C7F1C2A080004041F04040000003B
:100B700000000001010000000F0000000000000064
:100B80000000010808040602010160909090909016
:100B90006040C04040404040609010204080F06085
:100BA00090106010906004040A091F08080F0107E4
:100BB00008080906060107090909060F08040402C6
:100BC000020206090906090906060909090E0806AE
:100BD000000001000100000000000100010100040C
:100BE000020102040000000F000F000000010204D7
:100BF000020100070804020200023C425955390272
:100C00003C080814143E22410F11110F11110F0C52
:100C100012010101120C070911111109070F01013D
:100C20000701010F0F0101070101010C1201392118
:100C3000120C1111111F11111107020202020207F9
:100C40001010101010110E110905030509110101F2
:100C5000010101010F416363555549492123252DA8
:100C60002931210C12212121120C07090907010148
:100C7000010C12212121126C0F11110F0911110603
:100C80000901060809061F040404040404111111D3
:100C90001111110E412222141408084949495555D1
:100CA0002222111B0A040A1B1141221408080808F9
:100CB0001F10080402011F070101010101070101C2
:100CC000020604080807040404040407040A1100C7
:100CD0000000000000000000001F010100000000F3
:100CE00000080814143E22410F11110F11110F0CAE
:100CF00012010101120C070911111109070F01015D
:100D00000701010F0F0101070101010C1201392137
:100D1000120C1111111F1111110702020202020718
:100D20001010101010110E11090503050911010111
:100D3000010101010F416363555549492123252DC7
:100D40002931210C12212121120C07090907010167
:100D5000010C12212121126C0F11110F0911110622
:100D60000901060809061F040404040404111111F2
:100D70001111110E412222141408084949495555F0
:100D80002222111B0A040A1B114122140808080818
:100D90001F10080402011F040201010102040101E5
:100DA000010101010101020404040201000000002C
:100DB0000000000000000000000000000000000033
:100DC0000000000000000000000000000000000023
:100DD0000000000000000000000000000000000013
:100DE0000000000000000000000000000000000003
:100DF00000000000000000000000000000000000F3
:100E000000000000000000000000000000000000E2
:100E100000000000000000000000000000000000D2
:100E200000000000000000000000000000000000C2
:100E300000000000000000000000000000000000B2
:100E400000000000000000000000000000000000A2
:100E50000000000000000000000000000000000092
:100E60000000000000000000000000000000000082
:100E70000000000000000000000000000000000072
:100E80000000000000000000000000000000000062
:100E90000000000000000000000000000000000052
:100EA0000001010101010001050500000000000032
:100EB000287E143F0A0000000000000000422515B3
:100EC0002A545221020505021509160505000000E5
:100ED00000000402010101020401020404040201F1
:100EE000082A1C7F1C2A080004041F0404000000B8
:100EF00000000001010000000F00000000000000E1
:100F000000000108080406020101000000000000C2
:100F10000000000000000000000000000000008051
:100F200000808080808004040A091F08080F0107E0
:100F300008080906060107090909060F0804040242
:100F4000020206090906090906060909090E08062A
:100F50000000010001000000000001000101000488
:100F6000020102040000000F000F00000001020453
:100F7000020100070804020200023C4259553902EE
:100F80003C080814143E2241F08888F08888F00C50
:100F900012010101120C070911111109070F0101BA
:100FA0000701010F0F0101070101010C1201392195
:100FB000120C1111111F1111110702020202020776
:100FC0001010101010110E1109050305091101016F
:100FD000010101010F888888F88888882123252D40
:100FE000293121F88888888888880709090701013C
:100FF00001708880808088700F11110F091111060F
:101000000901060809061F0404040404041111114F
:101010001111110E412222141408088888887808BA
:101020000808111B0A040A1B1141221408080808A9
:101030001F10080402011F0701010101010701013E
:10104000020604080807040404040407040A110043
:101050000000000000000000001F000070087888F9
:1010600078087080F08888700000E090E090E00CD4
:1010700012010101120C0000382848F888000070A5
:1010800088F880780F0101070101010C1201392154
:10109000120C00008898A8C8880070008898A8C81A
:1010A000000090A0C0A09000007848484888010146
:1010B000010101010F00008888F88888000070880D
:1010C0008888700000F8888888880000E090E080B8
:1010D000800C12212121126C0000F8202020200019
:1010E0000088887808701F04040404040400008841
:1010F000502050880000909090F808494949555573
:101100002222111B0A040A1B114122140808080894
:101110001F10080402011F04020101010204010161
:1011200001010101010102040404020100000000A8
:1011300000000000007888784888151D1F191C1CC5
:10114000181C201D1E1B652938009129480084EFBA
:101150003800942928006429480034CE673055248B
:101160009448572494485524944894C46430F773A1
:10117000B24E844A0A52E773B3CE94420A4AE74316
:10118000B252972E9380A4849480C724F380A4A4A1
:10119000928097249480EE339270494A52904E4B3D
:1011A0009E70487A5250484B929097739270944A2E
:1011B000529077739E70144252501743929034BDF0
:1011C000270054A5290055A5E70056A5250094A59C
:1011D00029006773D270944A529087725E7094426D
:1011E000525067425290E7739927944A2529E77332
:1011F000A1E794422525E7439929A99CE938AA52F9
:101200004948725C4F38AA524928A99C49483499E8
:10121000CCF054A4929055A0929056A49290949899
:101220008C94EE51A4E08952A5208E32BCE0881740
:10123000A4A08864A5200008000407080206000690
:10124000090806060806D1F3E1EEF2E000CF27FF19
:10125000F2EDE8F6FF00D7E5F2E2E5F000D1E5F0C7
:10126000E5E4E000C2B3E2F2EEF0EEEA00CFEEED2C
:10127000E5E4B3EBEEEA00CDE5E4B3EBFF000000FC
:1012800011241FBECFEFD8E0DEBFCDBF11E0A0E03C
:10129000B1E0E4E1F7E302C005900D92AE35B1078D
:1012A000D9F725E0AEE5B1E001C01D92A13BB20740
:1012B000E1F70E94B71A0C94881B0C9400009093DD
:1012C000A2058093A10549E659E06AE082E00C940A
:1012D000190A8091A1059091A205811520E8920735
:1012E00019F40E94110F0DC093FF05C0906F9093E9
:1012F000A2058093A1058091A1059091A2050E946D
:10130000FA0D43E959E068EC82E00E94190A0C9456
:101310006B168FE599E00E94C61743E959E068EC27
:1013200082E00C94190A0E94B51749E859E06AE076
:1013300082E00C94190A0E94011143EA59E068EC1A
:1013400083E00C94190A83E00E942C0A0C94E710A5
:1013500080915E010E94D11180915E014E9B08C078
:101360009FEF980F9E3F68F48F5F80935E01089512
:10137000882339F0815080935E01811102C00C9462
:10138000F21008951F920F920FB60F9211240F9032
:101390000FBE0F901F9018950E94B8120E94011363
:1013A0000E94F2090E94A31678948BE999E00E94AA
:1013B000B7136DE17FE085EC9FE00E94F8170E9473
:1013C00034107894EDE6F0E0808180648083E8E674
:1013D000F0E080818460808348EA59E06AE081E03F
:1013E0000C94190AE0E6F1E010821482108614864B
:1013F000108A89E698E19093890080938800109282
:1014000080008CE080938100EFE6F0E080818260D4
:10141000808308951F920F920FB60F9211248F931D
:1014200081E080935F018F910F900FBE0F901F900E
:101430001895853078F44115510561F094E0899F45
:10144000F0011124E05AFE4F1182538342836083DE
:1014500080E0089581E00895853050F494E0899FFC
:10146000F0011124E05AFE4F1182108280E00895AD
:1014700081E00895853050F494E0899FF0011124B3
:10148000E05AFE4F1182608380E0089581E0089564
:10149000CF93DF9380915F018823A9F010925F01C1
:1014A000C0E6D1E09881992349F089818F5F8983D3
:1014B000981304C01982EA81FB810995249681E082
:1014C000C437D80779F7DF91CF91089542E75AE002
:1014D00061E080E00C94190A43E95AE061E080E0A1
:1014E0000C94190A809175018F5F809375018F7339
:1014F00029F446E65AE062E30E94190A0C946B163E
:1015000080910001882319F081508093000180911F
:101510000001811106C082E08093740180E00E9486
:101520002C0A0C946B1680910001803128F48F5F97
:10153000809300010E946B1680910001803131F48C
:1015400046E65AE062E380E00C94190A08954F924F
:101550005F926F927F928F929F92AF92BF92CF9243
:10156000DF92EF92FF920F931F93CF93DF930E942E
:101570001116082F0E941416C82F0E940B16182F40
:101580000E940E162EE1C29FE00111249EE1099FE8
:10159000B0011124EEE18E9FC0011124FEE11F9FD6
:1015A000A001112420E030E0E6E07E2E7E011FEF56
:1015B000E11AF10A2B01EFEF4E1A5E0A5C01FFEF10
:1015C000AF1ABF0A4A011FEF811A910AC22EC694B0
:1015D000D12CFE01E20FF31FE25FFD4FE4917C9CF2
:1015E000D0017D9CB00D1124AA55BD4FEC93F7019D
:1015F000E20FF31FE25FFD4FD490FB01E20FF31FF8
:10160000E25FFD4FC490C2941FE0C122DC28119616
:10161000DC921197C490F201E20FF31FE25FFD4FDD
:10162000E491F0E1CF9E60011124E295EF70EC2986
:101630001296EC931297F901E80FF91FE25FFD4F44
:10164000D490D6941396DC921397D490F501E20FC0
:10165000F31FE25FFD4FC490F901E40FF51FE25F55
:10166000FD4F6490C6946294669407E060226C28F3
:1016700010E8D19E60011124C6281496CC921497CC
:10168000C490F401E20FF31FE25FFD4FE491F8E034
:10169000CF9E60011124E295E695E770EC2915963E
:1016A000EC932E5F3F4F2E31310509F08FCFDF9144
:1016B000CF911F910F91FF90EF90DF90CF90BF904F
:1016C000AF909F908F907F906F905F904F90089514
:1016D00020E030E080E090E0A901480F591FFA01B6
:1016E000E859FF4FE491DA01AA55BD4FEC930696F5
:1016F0008036910589F72F5F3F4F2630310551F72E
:101700000895EF92FF920F931F93CF93DF930E9460
:101710001116082F0E941416D82F0E940B16E82EBF
:101720000E940E16C82F0E940516F82E0E94081659
:10173000D11121C0E6E7F2E01082369622E0E03ACD
:10174000F207D1F7A6E7B2E097E0099F80011124E4
:1017500027E0C29FE001112497E0E99EB001112427
:1017600027E0829FA001112427E0F29EC0011124EE
:1017700020E030E017C0A6E7B2E097E0D99FB001C3
:10178000112420E030E0FB01E20FF31FE853FE4F8D
:10179000E491E695EC932F5F3F4F16962730310585
:1017A00091F7D0CFF901E00FF11FE853FE4FE4911C
:1017B0001196EC931197F901EC0FFD1FE853FE4FC2
:1017C000E491E695E6951296EC931297F901E60FEF
:1017D000F71FE853FE4FE491E6951396EC931397A9
:1017E000F901E40FF51FE853FE4FE491E695E69505
:1017F000E6951496EC931497F901E80FF91FE85356
:10180000FE4FE491E695E6951596EC9315972F5FBC
:101810003F4F16962730310509F0C4CFF0FE14C0B3
:1018200080917D02816080937D028091950281602C
:1018300080939502809180028068809380028091DD
:101840009802806880939802DF91CF911F910F9149
:10185000FF90EF900895AF92BF92CF92DF92EF92F8
:10186000FF920F931F93CF93DF930E941716C82FF9
:10187000D0E0FE01EA5CFD4E9491A6E7B1E026E7D8
:1018800032E01C9211961C92119712961C9212979C
:1018900013961C92139714961C92149715961C92EB
:1018A000159790962A173B0761F710E0BE01625C1E
:1018B0007D4ECC0FDD1FCF5FDE4F08E0FB01849132
:1018C000181708F06EC0E881F981E10FF11D44910D
:1018D000E42FF0E0E65CF64F8491B92EB694B6940E
:1018E000B694292F2770A22EAB2DB0E0E7E04E9FD3
:1018F000A0011124AA58BE4F222309F442C0E12CB2
:10190000F12CC22ED12CF701E40FF51FE65CF54F48
:10191000249130E00A2C02C0359527950A94E2F70D
:10192000EC912E2B2C93FFEFEF1AFF0A909627E0F5
:10193000E216F10441F7C80ED11CE8E0CE16D1043E
:1019400024F48F5F980F1F5FB9CFF02EFA18B3946D
:10195000AB2DB0E0AA58BE4F20E030E0F901E40F13
:10196000F51FE65CF54FE4910F2C01C0EE0F0A94D1
:10197000EAF7EC932F5F3F4F90962730310571F7D0
:10198000E0CF20E030E0F901E40FF51FE65CF54F11
:10199000E491EC932F5F3F4F90962730310599F7F4
:1019A000D0CFDF91CF911F910F91FF90EF90DF90FB
:1019B000CF90BF90AF900895EF92FF920F931F9337
:1019C000CF93DF930E941A16C82F0E941D16D82F9E
:1019D0000E9420168150E82FF0E0E65CFE4EE49174
:1019E000D11102C0EA5F01C0E45F20E330E02E1BAA
:1019F000310937FF02C02F5F3F4F3595279590E49F
:101A0000920FE6E7F1E0108611861286138614869F
:101A10001586B09642E0E637F407A9F7DD2309F40E
:101A200047C0A92FA695A695A695B92FB7706A2F7E
:101A300070E06A587E4F97E0D99FA001112400E022
:101A400010E0F801E40FF51FE853FE4FE491F0E0D9
:101A50007F010B2E02C0F594E7940A94E2F7FB0194
:101A6000E0820F5F1F4F605E7F4F0730110549F71F
:101A7000B33018F496E4920F1BC098E09B1BAF5F45
:101A8000B0E0AA58BE4F60E070E0FB01E40FF51F24
:101A9000E853FE4FE491092E01C0EE0F0A94EAF7D5
:101AA000EC936F5F7F4F90966730710571F7E2CFCF
:101AB000492F469546954695592F5770A42FB0E06B
:101AC000F7E0CF9F90011124AA58BE4F552309F487
:101AD00048C060E070E0F901E60FF71FE853FE4FE1
:101AE000E491F0E0052E02C0F595E7950A94E2F73F
:101AF000FC91EF2BEC936F5F7F4F909667307105F1
:101B000051F7533090F4995F092F06950695069585
:101B1000192F177024E1829FC001112420E030E0CA
:101B200068E070E0611B71092CC068E0651B4F5FC5
:101B3000A42FB0E0AA58BE4F40E050E0F901E40FF6
:101B4000F51FE853FE4FE491062E01C0EE0F0A94F4
:101B5000EAF7EC934F5F5F4F90964730510571F76E
:101B6000D2CF40E050E0FA01E20FF31FE853FE4FFE
:101B7000E491EC934F5F5F4F90964730510599F792
:101B8000C2CFA02FA20FB0E0AA54BE4FEC01C20FEB
:101B9000D31F40E050E0FE01E40FF51FEA5BFE4E6C
:101BA000E4911123A1F0F0E07F01012E02C0F59431
:101BB000E7940A94E2F7FC91EF2AEC92062E01C01A
:101BC000EE0F0A94EAF71196EC93119701C0EC938B
:101BD0004C5F5F4F909644315105E9F62F5F3F4FC0
:101BE0002430310571F6DF91CF911F910F91FF9055
:101BF000EF900895AF92BF92CF92DF92EF92FF9253
:101C00000F931F93CF93DF939C0197FF05C03195EE
:101C10002195310911E001C010E0C901F4E095956A
:101C20008795FA95E1F76AE00E94E21A692F2F7012
:101C3000220F422F440F440F240F22952F70C6E726
:101C4000D1E037E0939F6001112497E0299F700154
:101C50001124DE0140E050E0FA01EC0DFD1DE853D7
:101C6000FE4F9491929596959695937053969C936A
:101C70005397A490FA01EE0DFF1DE853FE4F949187
:101C800034E0A39E500111249295969596959370F9
:101C9000A92A5496AC925497E491EE0FEE0F559604
:101CA000EC9355974F5F5F4F909647305105A1F6E3
:101CB0001092E80190914A02986090934A0288231A
:101CC000D9F097E0899FD001112440E050E0FA015B
:101CD000EA0FFB1FE853FE4FE4919B89E92BEB8B46
:101CE0004F5F5F4FA0964730510589F7112359F098
:101CF0009EE09093E80107C0112329F09091E9013B
:101D000098639093E90190918B01966090938B0179
:101D10009091EB0196609093EB019091AB019960EB
:101D20009093AB019091CB0199609093CB01EEE140
:101D30008E9FC0011124FEE16F9FB00111243EE18E
:101D4000239FA001112420E030E0E6E0BE2E7C01BC
:101D5000EFEFEE1AFE0A8B010F5F1F4FEA0121968B
:101D6000C22EC694D12CFC01E20FF31FE25FFD4F9F
:101D7000A490BC9CD001BD9CB00D1124AA55BD4FB0
:101D8000DA2CD694D694D694D694DC92C490F701EB
:101D9000E20FF31FE25FFD4FE491F0E1CF9E60019F
:101DA0001124E295EF70EC291196EC931197FB0149
:101DB000E20FF31FE25FFD4FE4911296EC9312974E
:101DC000F801E20FF31FE25FFD4FE4911396EC93ED
:101DD0001397FA01E20FF31FE25FFD4FE4911496AF
:101DE000EC931497FE01E20FF31FE25FFD4FE491C5
:101DF0001596EC932E5F3F4F2E31310509F0B0CF91
:101E00009091FD0284E089278093FD02DF91CF91BC
:101E10001F910F91FF90EF90DF90CF90BF90AF9008
:101E20000895E6E7F1E0128A138A148A158AB096BB
:101E300082E0E635F807B9F708958F929F92AF9246
:101E4000BF92CF92DF92EF92FF920F931F93CF93A7
:101E5000DF939B01AC01AAE0B0E00E94611B4B0143
:101E60005C0125E830E040E050E00E94241B69015D
:101E70007A01C501B40128E837E042E050E00E9451
:101E8000241BC22F28EE33E0C29FC001C39F900DD8
:101E90001124C81AD90AE108F108C701B60124E6DD
:101EA00030E040E050E00E94241B022F24E6029F15
:101EB000C0011124C81AD90AE108F108C701B60106
:101EC0002AE030E040E050E00E94241B8AE0289F96
:101ED000C0181124A6E7B1E087E0C89F7001112463
:101EE00087E0089F8001112487E0289FE0011124EA
:101EF00027E0C29EB001112440E050E0FA01EE0D4F
:101F0000FF1DE853FE4F849182958F7059968C93F4
:101F100059979491FA01E00FF11FE853FE4FE491B5
:101F200020E1929FC0011124E695E6958E2B5A96EA
:101F30008C935A97FA01EC0FFD1FE853FE4FE49182
:101F40005B96EC935B97FA01E60FF71FE853FE4FA1
:101F5000E4915C96EC935C974F5F5F4F90964730AF
:101F6000510509F0CBCF80915102826080935102DC
:101F7000DF91CF911F910F91FF90EF90DF90CF9065
:101F8000BF90AF909F908F9008959C01EAE0F0E0A1
:101F9000BF010E94EE1ACB01BF010E94EE1A482F2A
:101FA000C90164E670E00E94EE1AA6E7B1E020E005
:101FB00030E087E0689FB0011124489FC0011124E0
:101FC000FB01E20FF31FE853FE4F4491FC01E20FC7
:101FD000F31FE853FE4F5491529556955695537002
:101FE000452B50964C935097E491EE0FEE0F51967F
:101FF000EC9351972F5F3F4F90962730310501F7B3
:10200000809187018660809387018091E7018660D7
:102010008093E7018091A70189608093A701809157
:10202000C70189608093C7010895AEE1B1E08EE5F4
:1020300091E0ED91FD919F012A5F3F4F1192E217D0
:10204000F307E1F78A179B07A1F7AEE4B1E0ED9142
:10205000FD919F01205E3F4F11922E173F07E1F740
:102060008A179B07A1F708950E9415100E94411638
:102070000C946B168F929F92AF92BF92CF92DF9289
:10208000EF92FF920F931F93CF93DF9320917501EF
:10209000322F377026952695269590910001E82ECF
:1020A000E90E4E2D50E0915F981BC92FD0E0DB0167
:1020B0006BE0F62EF20E60E070E08F5FCC0FDD1F5C
:1020C000C25EDE4F08E010E0031B1109440F551FEC
:1020D000425E5E4F8C93E62F663088F5F7E1FE1581
:1020E00040F0FA01C080D180F601E60FF71FD080E2
:1020F00022C0E20FEF71BE2EFA0180809180640150
:10210000CB0CD11CF601D0803323A9F0B394FB2D66
:10211000FF71BF2EF401EB0DF11DE081F0E0002E08
:1021200002C0F595E7950A94E2F7032E01C0DD0C95
:102130000A94EAF7DE2A1196DC92119733C0DF2C5D
:10214000D21A983130F4E881F981ED0DF11DA080AB
:1021500021C0EF2DEF71BE2EC880D980F601EB0DA6
:10216000F11DA0803323B1F0F1E0FB0DFF71CF0E24
:10217000D11CF601C080D12C002E02C0D594C7948A
:102180000A94E2F7EA2D032E01C0EE0F0A94EAF753
:10219000AE2EAC28EA2DF0E0E853FF4FE491119603
:1021A000EC9311976F5F7F4F1296FA946C30710524
:1021B00009F090CFDF91CF911F910F91FF90EF9099
:1021C000DF90CF90BF90AF909F908F90089581E067
:1021D000809374010E946B1640E85AE061E080E051
:1021E0000C94190A84E0809374010E94151080E118
:1021F00080930001109275010E946F1680E00C948C
:102200002C0A80917401833069F40E94810B0E9432
:102210002B0C0E94DC0C0E94051681110C946B168D
:102220000C946F168130D1F3823089F40E94810BB7
:102230000E942B0C0E94DC0C1092750183E08093AD
:1022400074014CE65AE061E080E00C94190A0895AC
:10225000599A1092C50087E68093C40088E980935C
:10226000C1001092090410920A0410920703109200
:10227000080308959B01AC0184E0220F331F441F23
:10228000551F8A95D1F760E074E284EF90E00E94D8
:10229000021BDA01C9010197A109B109892F9A2FFF
:1022A000AB2FBB278093C50021502093C400089515
:1022B000809106030895909108039F5F2091070382
:1022C0009217E1F3E92FF0E0E75FFC4F80839093F2
:1022D00008038091C10080628093C10008959091AD
:1022E0000A04809109049817D1F3E0910904EF5F83
:1022F000E093090490910A0480910904981302C0A4
:1023000010920603F0E0E55FFB4F808108951F9275
:102310000F920FB60F9211248F939F93EF93FF9319
:1023200080910A048F5FE82FF0E09091C600E55F8E
:10233000FB4F908380930A0481E080930603FF9112
:10234000EF919F918F910F900FBE0F901F90189556
:102350001F920F920FB60F9211248F939F93EF93BA
:10236000FF939091080380910703981761F0E09123
:102370000703EF5FE0930703F0E0E75FFC4F808126
:102380008093C60005C08091C1008F7D8093C100FD
:10239000FF91EF919F918F910F900FBE0F901F9023
:1023A0001895CF93C82F82958F708A3018F0895076
:1023B000806401C080630E945B118C2F8F708A3013
:1023C00018F08950806401C08063CF910C945B1138
:1023D0001F920F920FB60F9211242F933F934F939A
:1023E0005F936F937F938F939F93AF93BF93EF937D
:1023F000FF938091B900887F8832A9F178F4803109
:1024000071F130F4883009F0A2C080910B0543C00F
:10241000883149F1803209F48BC099C0883409F4BD
:1024200087C038F4803309F483C0803409F489C04C
:102430008EC0803509F44CC0883509F088C0E09121
:102440001005F09111058091120591E0980F90937D
:1024500012059091BB00E80FF11D908357C0809149
:102460000B05816018C080911305813009F06FC0A1
:102470009091120580910C05981780F4E0910E055B
:10248000F0910F058091120591E0980F909312053D
:10249000E80FF11D80818093BB0033C080910D0552
:1024A0008823A1F18091BC008F70806A8093BC006A
:1024B0001092120580910D05813031F48091BC009D
:1024C0008F7080688093BC0082E0809313053FC0CA
:1024D000E0911005F09111058091120591E0980F9F
:1024E000909312059091BB00E80FF11D90838091AD
:1024F000120520910D0590E0019630E082179307B8
:1025000004F18091BC008F7080681FC08091BC0076
:102510008F70806D8093BC0080911405909115059B
:10252000892B61F0E0911405F0911505099506C01D
:102530008091BC008F70806D8093BC001092130559
:1025400006C08091BC008F70806C8093BC00FF91AE
:10255000EF91BF91AF919F918F917F916F915F911B
:102560004F913F912F910F900FBE0F901F90189594
:1025700088B1806388B9E9EBF0E080818C7F80834B
:102580008CE08093B800ECEBF0E080818564808380
:102590000895EF92FF920F93982F80911305811168
:1025A00025C070930F0560930E055093110540935D
:1025B000100520930C0500930D0510921205F09262
:1025C0001505E0921405222321F021E02093130544
:1025D00004C022E020931305916090930B05909125
:1025E000BC009F70906A9093BC0001C08FEF0F9168
:1025F000FF90EF9008959091130581E0911180E094
:10260000089584B18C6284B981ED8CBD08951F92C8
:102610000F920FB60F9211242F933F934F935F9316
:102620006F937F938F939F93AF93BF93EF93FF939A
:102630008091190590911A05892B61F0E091190597
:10264000F0911A05CF01019690931A058093190510
:102650008EB580838091160581508093160588235E
:1026600069F0E0911705F0911805CF01019690935C
:1026700018058093170580818EBD0DC080911C05C3
:1026800090911D05892B29F0E0911C05F0911D0505
:10269000099510921B05FF91EF91BF91AF919F910A
:1026A0008F917F916F915F914F913F912F910F90FB
:1026B0000FBE0F901F901895FC0180911B05811192
:1026C00016C0DF011196B0931805A09317057093FB
:1026D0001A05609319054093160530931D05209344
:1026E0001C0591E090931B0590819EBD08958FEF8E
:1026F000089520911B052111FCCF9C012F5F3F4FB6
:10270000309318052093170570931A0560931905E7
:102710004093160510921D0510921C0521E0209390
:102720001B05FC0180818EBD80911B058111FCCFB2
:10273000089590911B0581E0911180E0089520910A
:10274000200530E02F5D3A4FDC01ED91FC91E2175E
:10275000F30758F4AF014F5F5F4FDC014D935C937B
:1027600041814C3289F780E0089581E0089590938B
:102770001F0580931E050C9428112F923F924F92B3
:102780005F926F928F929F92AF92BF92CF92DF92A1
:10279000EF92FF921F93CF93DF9300D0CDB7DEB7B8
:1027A0006AE0662E222423947CE0372EECE9EE2E9C
:1027B000FF24FA94F0E9CF2EDD24D394ACE0AA2EC6
:1027C000B12CB7E08B2E912C19E2412E80E3582ECC
:1027D0000E945811882309F405C20E946F118432A7
:1027E00019F410922005F4CFE0912005E03480F731
:1027F0008A3209F0EEC1E93158F380912305823520
:1028000039F7809124058D3419F78091250583349B
:10281000F9F621E235E03A832983CE0101960E9440
:102820009F138111D5CFE981FA81CF0101969A8357
:102830008983818180538093AA058281805380930C
:10284000AE05838180538093A40584818053809357
:10285000A805858180538093A705CF0106969A83AA
:102860008983868180538093AF0517E0CE0101965E
:102870000E949F131150D1F7CE0101960E949F1321
:10288000182F8111A5CFE981FA81CF0101969A8392
:102890008983618160536093A905328130533093FD
:1028A000B005238120532093A305948190539093E6
:1028B000A50575817053AF014A5F5F4F5A83498305
:1028C000868180534AE0749F800D11248093AD056A
:1028D0008091AA058A3008F07BCF8091AE058A30BE
:1028E00008F076CF8091A4058A3008F071CF8091EE
:1028F000A8058A3008F06CCF8091A7058A3008F0CF
:1029000067CF8091AF058A3008F062CF6A3008F057
:102910005FCF3A3008F05CCF2A3008F059CF9A30B8
:1029200008F056CF8CE70E945B118091AA05805D6C
:102930000E945B118091AE05805D0E945B118AE36D
:102940000E945B118091A405805D0E945B118091C3
:10295000A805805D0E945B118AE30E945B11809153
:10296000A705805D0E945B118091AF05805D0E948C
:102970005B1180E20E945B118091A905805D0E943D
:102980005B118091B005805D0E945B118EE20E9418
:102990005B118091A305805D0E945B118091A5056C
:1029A000805D0E945B118EE20E945B118091AD05FB
:1029B000662D0E94E21A805D0E945B118091AD0538
:1029C000662D0E94E21A80E3890F0E945B118CE75A
:1029D0000E945B114091A3059091A505392F50E10C
:1029E000459F300D1124A091A905F091B0052F2F1E
:1029F0006AE0A69F200D11245091AA058091AE0592
:102A0000E82F60E1569FE00D11246DEF630F6E30EB
:102A100050F56CEF630F6C3028F1333081F4B091D6
:102A2000A6056B2F70E0695E7F4F30E06217730779
:102A3000D4F411E0B130B9F4E11115C011C0303156
:102A400091F4B091A6056B2F70E0695E7F4F30E086
:102A5000621773073CF4B13031F411E0E23018F042
:102A600010E001C011E08E5F2091AD05322F337070
:102A700011F4211103C04092130102C050921301BE
:102A8000810F8093AE058A3030F08A508093AE0576
:102A90005F5F5093AA058091AA05823009F047C074
:102AA0008091AE05843009F042C01092AE051092BC
:102AB000AA05FF5FF093B005FA3029F41092B00533
:102AC000AF5FA093A9058091A9056091B00570E062
:102AD00030E1839F600D711D112450E1459FF0018D
:102AE0001124EF5EFE4FE90FF11DE081F0E06E175B
:102AF0007F07E9F42092B0051092A9059F5F90939B
:102B0000A5059A3029F41092A5054F5F4093A305BF
:102B10008091A305813059F49091A505933039F443
:102B20008093A5051092A3052F5F2093AD0580919A
:102B3000A3054091A5056AE0869F400D112481E020
:102B400043300CF080E02091AD0530E02053384F49
:102B5000281B31094250839D400D11249091A905F5
:102B60008091B0055AE0959F800D1124F901E80F7E
:102B7000F11D87FDFA95C9019595879595958795DE
:102B8000E80FF91FC901B7010E94EE1AE60FF71FFF
:102B9000C901B6010E94EE1AE60FF71F6FE1460267
:102BA000C0011124B5010E94EE1ACF01860F971FB4
:102BB000885A944EB4010E94EE1A8F5F8093A60546
:102BC000E0911E05F0911F05309709F401CE09959B
:102BD000FFCD91E09E0F90932005F0E0EF5DFA4F5E
:102BE0008083F6CD0F900F90DF91CF911F91FF90D2
:102BF000EF90DF90CF90BF90AF909F908F906F90AD
:102C00005F904F903F902F9008958091AF05089569
:102C10008091A70508958091A80508958091A40545
:102C200008958091AE0508958091AA050895809138
:102C3000A60508958091B00508958091A90508958D
:102C40009091A3058091A5052AE0929F800D112403
:102C500008958091AD0508952A982A9A0895E2E68C
:102C6000F5E080836183329695E0EA37F907C9F78A
:102C70002CE236E148E160E070E082E695E00C94F9
:102C80005C13229A67E08BE00E942F160E94991332
:102C90008823E1F360E089E00E942F160E949913D7
:102CA0008823E1F361E08CE00E942F160E949913C3
:102CB0008823E1F360E08FE00E942F160E949913B1
:102CC0008823E1F361E08AE00E942F160E949913A5
:102CD0008823E1F3089588E080936105089580E1F9
:102CE00080936105089580916105882359F10E94C0
:102CF0009913882339F18091610581508093610592
:102D0000883068F462E675E00E943A102CE236E101
:102D100048E160E070E082E695E00C945C138B3053
:102D200071F028F4893039F08A3039F008958C3008
:102D300021F08F3039F460E003C061E001C067E04A
:102D40000C942F1608955A98529882E084BD15BCB1
:102D500010926E000895529A5A9810927C059093A2
:102D60007B0580937A0516BC8DE787BD86E080934E
:102D70006E0083E085BD089552985A9810927C05A4
:102D800010927D0590937B0580937A0516BC8DE7A4
:102D900087BD8CE088BD86E080936E0083E085BDB2
:102DA000089552985A9898E090937C0580937D05F9
:102DB00070937B0560937A0516BC84E187BD82E041
:102DC00080936E0085BD089552985A9828E020930C
:102DD0007C052FEF20937D0590937B0580937A05EA
:102DE00016BC84E187BD88BD86E080936E0082E0DA
:102DF00085BD08951F920F920FB60F9211242F9345
:102E00003F934F935F936F937F938F939F93AF9372
:102E1000BF93EF93FF9380917C0581110DC015BC8A
:102E200010926E00E0917A05F0917B05309719F1D0
:102E300080917D0509951FC0529B14C052988091C6
:102E40007D0580FF02C08AEA01C08EE187BD8091C6
:102E50007C05815080937C0580917D0586958093CB
:102E60007D0509C0529A80917D0580FF02C084E1F2
:102E700001C080EA87BDFF91EF91BF91AF919F9113
:102E80008F917F916F915F914F913F912F910F9013
:102E90000FBE0F901F9018951F920F920FB60F92B2
:102EA00011248F934A9B05C080917D058068809393
:102EB0007D058F910F900FBE0F901F9018955A9A15
:102EC000529A10928205089520917E0530917F05D7
:102ED000A901582BCA0150937F0540937E05E091CC
:102EE0008005F0918105309709F0099510928205CF
:102EF00008956FE577E184E40C94D11664E977E1F5
:102F00008EEB0C94D11688E997E10C94BC1682EAFA
:102F100097E10C94BC1690E090937F0580937E051A
:102F200084E697E10C94E4168BE897E10C94E416A0
:102F3000882319F010928205089569E777E18CECF7
:102F40000C94D116882361F0E0918005F091810501
:102F5000309719F080E090E8099510928205089565
:102F60006EE777E18CEC0C94D116CF93C09182057B
:102F7000C11108C081E08093820583E897E10E9437
:102F8000AB1601C0C1E08C2FCF910895CF93C091B3
:102F90008205C1110CC021E0209382059093810528
:102FA0008093800587E897E10E94AB1601C0C1E0DD
:102FB0008C2FCF91089583E080938705089585E055
:102FC00080938705089584E00E942C0A81E0809315
:102FD0008705089584E00E942C0A84E08093870589
:102FE000089584E00E942C0A82E08093870508956A
:102FF000AF92BF92CF92DF92EF92FF920F93CF9357
:10300000DF93CDB7DEB766970FB6F894DEBF0FBE7D
:10301000CDBF5C016B010E94FB128823E1F380EEBF
:10302000898386EB8A83E12CF12C00E022E040E0EA
:1030300050E0BE016F5F7F4F8EEE0E94C91281117A
:1030400085C00E94FB128823E1F38FE19EE4019783
:10305000F1F700C000008AEA8983E12CF12C06E137
:1030600021E0AE014F5F5F4FBA018EEE0E94C912A0
:1030700081116CC00E94FB128823E1F389819A813F
:103080009827892798279093A00580939F058B8187
:103090009C8198278927982790939E0580939D056A
:1030A0008D819E8198278927982790939C058093EE
:1030B0009B058F81988598278927982790939A0553
:1030C0008093990589859A859827892798279093D1
:1030D0009805809397058B859C8598278927982745
:1030E00090939605809395058D859E8598278927D1
:1030F000982790939405809393058F8598899827B6
:103100008927982790939205809391058B899C89B4
:1031100098278927982790938E0580938D058D8910
:103120009E8998278927982790938C0580938B05F3
:10313000B0928605A0928505D0928405C092830541
:1031400043EE57E168EC84E00E94190A66960FB6D8
:10315000F894DEBF0FBECDBFDF91CF910F91FF90EE
:10316000EF90DF90CF90BF90AF9008952F923F9255
:103170004F925F926F927F928F929F92AF92BF9287
:10318000CF92DF92EF92FF920F931F93CF93DF9333
:103190000E94FB12882309F4D7C1809187058330F0
:1031A00009F43FC070F4813091F0823009F0CCC155
:1031B00086EF809388053BEDE32E37E1F32E02E0A6
:1031C00026C08430E1F0853009F4B1C0BDC184EF80
:1031D000809388058EE280938905E12CF12C00E034
:1031E00022E040E050E068E875E08EEE0E94C912EF
:1031F0008111AAC11092870541EF57E182C086EF85
:1032000080938805DFEDED2ED7E1FD2E03E021E070
:1032100048E855E0BA018EEE0E94C912811194C1AE
:1032200091C12091880530918905322723273227C3
:10323000A90160E070E080919505909196059A0152
:10324000AB01281B390B41095109A0919705B09199
:1032500098050E94611B6B017C011FE0F594E794C7
:10326000D794C7941A95D1F760918D0570918E050A
:10327000CB01770FAA0BBB0BBC01CD010BE0660F96
:10328000771F881F991F0A95D1F720918B053091E0
:103290008C058901330F220B330BA90198012C0DEA
:1032A0003D1D4E1D5F1D0E94241BC20ED31ED092D9
:1032B0009005C0928F0588E0C80ED11CC60124E09D
:1032C000959587952A95E1F7E0918505F09186051A
:1032D000309709F0099584EF8093880580938905DC
:1032E000E12CF12C00E022E040E050E068E875E0DD
:1032F0008EEE0E94C912811127C1109287054AEEF5
:1033000057E161E084E0DF91CF911F910F91FF9031
:10331000EF90DF90CF90BF90AF909F908F907F9075
:103320006F905F904F903F902F900C94190AC0902F
:103330008805D0908905DC24CD24DC24E12CF12CF7
:10334000FE2CED2CDC2CCC2480918A05C82AE0913F
:103350008F05F0919005E05AFF409F01DF010E9428
:10336000431B4B015C01C0919D05D0919E052090AF
:103370009F053090A00500919B0510919C05A091A0
:103380009305B09194059B01AC018CE05595479550
:10339000379527958A95D1F70E946C1B2C017724CD
:1033A00057FC7094672C9F01D8010E94431BDC01DD
:1033B000CB013DE0B595A795979587953A95D1F7BF
:1033C000840D951DA61DB71D0296A11DB11D42E0DD
:1033D000B595A795979587954A95D1F79C01AD012D
:1033E00030584F4F5F4FA0919905B0919A050E94B8
:1033F000611B2B013C015FE07694679457944794DE
:103400005A95D1F765E0F594E794D794C7946A95F7
:10341000D1F7A0919105B0919205A50194010E9468
:103420006C1B4B015C0177E1B594A794979487944A
:103430007A95D1F79F01DE010E94431BDC01CB018D
:10344000EBE0B595A79597958795EA95D1F7880D07
:10345000991DAA1DBB1DA101330C660B770BF2E071
:10346000440F551F661F771FFA95D1F7840F951FDC
:10347000A61FB71F880F991FAA1FBB1FA701960180
:10348000281B390B4A0B5B0BAAE6B8E10E94611BB3
:1034900097FD0BC0660F771F881F991FA30192012C
:1034A0000E94021B49015A010AC0A30192010E9415
:1034B000021B49015A01880C991CAA1CBB1C9927A4
:1034C000B7FC9A958B2D7A2D692D9B01AC010E943A
:1034D000D21A9B01AC01AEEDBBE00E94611B6B01F7
:1034E0007C01A3E4B3EEA50194010E946F1BBB27EE
:1034F00097FDB095AB2F6701FF24D7FCF094EF2C1C
:103500008C0D9D1DAE1DBF1D8153914FAF4FBF4F01
:1035100044E0B595A795979587954A95D1F7BC0155
:10352000CD01680D791D8A1D9B1DE0918305F091E9
:103530008405309709F0099543EE57E168EC84E083
:103540000E94190A10928705DF91CF911F910F9168
:10355000FF90EF90DF90CF90BF90AF909F908F90B3
:103560007F906F905F904F903F902F9008950E94B2
:10357000CC0983E50E945B110E949309CEE1809102
:103580005E01811106C04E9B04C00E94E710C093EB
:103590005E010E9473160E94BD130E94B6180E941D
:1035A000480AEDCFDB018F939F930E94611BBF916F
:1035B000AF91A29F800D911DA39F900DB29F900D82
:1035C00011240895991B79E004C0991F961708F0FB
:1035D000961B881F7A95C9F78095089597FB072E4B
:1035E00016F4009407D077FD09D00E94741B07FCE5
:1035F00005D03EF4909581959F4F08957095619503
:103600007F4F0895A1E21A2EAA1BBB1BFD010DC01E
:10361000AA1FBB1FEE1FFF1FA217B307E407F50782
:1036200020F0A21BB30BE40BF50B661F771F881F5E
:10363000991F1A9469F760957095809590959B01F4
:10364000AC01BD01CF010895052E97FB1EF4009437
:103650000E943B1B57FD07D00E94021B07FC03D0B2
:103660004EF40C943B1B50954095309521953F4F5F
:103670004F4F5F4F089590958095709561957F4F5E
:103680008F4F9F4F08950E944B1B332312F48A1BC8
:103690009B0B0C945C1BA29FB001B39FC001A39F26
:1036A000700D811D1124911DB29F700D811D11247B
:1036B000911D08950E944B1BB7FF0895821B930B29
:1036C00008950E944B1BA59F900DB49F900DA49F41
:1036D000800D911D11240895B7FF0C94611B0E9469
:1036E000611B821B930B0895AA1BBB1B51E107C0F2
:1036F000AA1FBB1FA617B70710F0A61BB70B881F82
:10370000991F5A95A9F780959095BC01CD01089510
:04371000F894FFCF5B
:10371400107E1277126D1264125D1256124D12460B
:103724001200322932313231323231323132A60290
:10373400AC02B202B802BE02C402CA02D002D6026D
:10374400DC02E202E802EE02F402FA02000376026C
:103754007C02820288028E0294029A02A0027601FE
:0E3764009601B601D601F60116023602560293
:00000001FF
